{
  "contractName": "Lottery",
  "abi": [
    {
      "inputs": [],
      "stateMutability": "nonpayable",
      "type": "constructor"
    },
    {
      "inputs": [],
      "name": "manager",
      "outputs": [
        {
          "internalType": "address",
          "name": "",
          "type": "address"
        }
      ],
      "stateMutability": "view",
      "type": "function",
      "constant": true
    },
    {
      "inputs": [
        {
          "internalType": "uint256",
          "name": "",
          "type": "uint256"
        }
      ],
      "name": "players",
      "outputs": [
        {
          "internalType": "address payable",
          "name": "",
          "type": "address"
        }
      ],
      "stateMutability": "view",
      "type": "function",
      "constant": true
    },
    {
      "stateMutability": "payable",
      "type": "receive",
      "payable": true
    },
    {
      "inputs": [],
      "name": "getBalance",
      "outputs": [
        {
          "internalType": "uint256",
          "name": "",
          "type": "uint256"
        }
      ],
      "stateMutability": "view",
      "type": "function",
      "constant": true
    }
  ],
  "bytecode": "0x608060405234801561001057600080fd5b5033600160006101000a81548173ffffffffffffffffffffffffffffffffffffffff021916908373ffffffffffffffffffffffffffffffffffffffff1602179055506104f0806100616000396000f3fe6080604052600436106100385760003560e01c806312065fe0146100f1578063481c6a751461011c578063f71d96cb14610147576100ec565b366100ec5767016345785d8a00003414610087576040517f08c379a000000000000000000000000000000000000000000000000000000000815260040161007e906102de565b60405180910390fd5b6000339080600181540180825580915050600190039060005260206000200160009091909190916101000a81548173ffffffffffffffffffffffffffffffffffffffff021916908373ffffffffffffffffffffffffffffffffffffffff160217905550005b600080fd5b3480156100fd57600080fd5b50610106610184565b6040516101139190610317565b60405180910390f35b34801561012857600080fd5b5061013161021c565b60405161013e9190610373565b60405180910390f35b34801561015357600080fd5b5061016e600480360381019061016991906103bf565b610242565b60405161017b919061040d565b60405180910390f35b6000600160009054906101000a900473ffffffffffffffffffffffffffffffffffffffff1673ffffffffffffffffffffffffffffffffffffffff163373ffffffffffffffffffffffffffffffffffffffff1614610216576040517f08c379a000000000000000000000000000000000000000000000000000000000815260040161020d9061049a565b60405180910390fd5b47905090565b600160009054906101000a900473ffffffffffffffffffffffffffffffffffffffff1681565b6000818154811061025257600080fd5b906000526020600020016000915054906101000a900473ffffffffffffffffffffffffffffffffffffffff1681565b600082825260208201905092915050565b7f496e76616c69642056616c756520726563656976656400000000000000000000600082015250565b60006102c8601683610281565b91506102d382610292565b602082019050919050565b600060208201905081810360008301526102f7816102bb565b9050919050565b6000819050919050565b610311816102fe565b82525050565b600060208201905061032c6000830184610308565b92915050565b600073ffffffffffffffffffffffffffffffffffffffff82169050919050565b600061035d82610332565b9050919050565b61036d81610352565b82525050565b60006020820190506103886000830184610364565b92915050565b600080fd5b61039c816102fe565b81146103a757600080fd5b50565b6000813590506103b981610393565b92915050565b6000602082840312156103d5576103d461038e565b5b60006103e3848285016103aa565b91505092915050565b60006103f782610332565b9050919050565b610407816103ec565b82525050565b600060208201905061042260008301846103fe565b92915050565b7f4f6e6c79206d616e616765722063616e2076696577207468652062616c616e6360008201527f6500000000000000000000000000000000000000000000000000000000000000602082015250565b6000610484602183610281565b915061048f82610428565b604082019050919050565b600060208201905081810360008301526104b381610477565b905091905056fea2646970667358221220ff821c5095505c41664188a662c31ddd206dffad1568a84c3ec79199a1dcd2c864736f6c634300080c0033",
  "immutableReferences": {},
  "source": "pragma solidity 0.8.12;\n\ncontract Lottery {\n    address payable[] public players;\n    address public manager;\n\n    constructor() {\n        manager = msg.sender;\n    }\n\n    receive() external payable {\n        require(msg.value == 0.1 ether, \"Invalid Value received\");\n        players.push(payable(msg.sender));\n    }\n\n    function getBalance() public view returns (uint256) {\n        require(msg.sender == manager, \"Only manager can view the balance\");\n        return address(this).balance;\n    }\n}\n",
  "sourcePath": "/Users/anilrajthota/Documents/GitHub/Lottery-SmartContract/contracts/Lottery.sol",
  "compiler": {
    "name": "solc",
    "version": "0.8.12+commit.f00d7308.Emscripten.clang"
  },
  "schemaVersion": "3.4.4",
  "updatedAt": "2022-03-03T12:59:54.040Z",
  "networkType": "ethereum",
  "devdoc": {
    "kind": "dev",
    "methods": {},
    "version": 1
  },
  "userdoc": {
    "kind": "user",
    "methods": {},
    "version": 1
  }
}